:020000040800F2
:1024000010130020012500087740000879390008E2
:1024100075400008F9250008254500080000000067
:10242000000000000000000000000000D942000889
:10243000FB250008000000008D400008DB4200087A
:102440001B2500081B2500081B2500081B2500086C
:102450001B2500081B2500081B2500081B2500085C
:102460001B2500081B2500081B2500081B2500084C
:102470001B2500081B2500081B2500081B2500083C
:102480001B2500081B250008912500081B250008B6
:102490001B2500081B2500081B2500081B2500081C
:1024A0001B2500081B2500081B2500081B2500080C
:1024B0001B2500081B2500081B2500081B250008FC
:1024C0001B2500081B2500081B2500081B250008EC
:1024D0001B2500081B2500081B2500081B250008DC
:1024E0001B2500081B2500081B250008DFF80CD061
:1024F00000F03CF800480047599D000810130020E8
:102500000648804706480047FEE7FEE7FEE7FEE78D
:10251000FEE7FEE7FEE7FEE7FEE7FEE74D430008C5
:10252000ED24000840EA01039B0703D009E008C935
:10253000121F08C0042AFAD203E011F8013B00F888
:10254000013B521EF9D27047D2B201E000F8012BD4
:10255000491EFBD270470022F6E710B513460A4623
:1025600004461946FFF7F0FF204610BD064C074D04
:1025700006E0E06840F0010394E807009847103453
:10258000AC42F6D3FFF7B6FFCCD20008ECD200087D
:1025900010B5044800F0B3F8BDE81040024800F060
:1025A000AEB80000D00000200001002070B5044645
:1025B00000688168C943C9071CD1816821F0010105
:1025C000816000F0F3FA05460FE000BF00F0EEFA7C
:1025D000401B022809D9A06A40F01000A062E06AFE
:1025E00040F00100E062012070BD20688068C043B7
:1025F000C007EBD0002070BDFEE770477047704702
:10260000F8B50024009490F824202546012A12D021
:10261000012280F824204A681F23072A0DD2066869
:10262000776B521E02EB820293409F430B689340EC
:102630001F43776319E00220F8BD06680D2A0AD20D
:10264000376BD21F02EB820293409F430B6893408B
:102650001F43376309E0F76A0D3A02EB82029340A9
:102660009F430B6893401F43F7620A68072306687D
:102670000A2A0AD3F7680A3A02EB420293409F43C0
:102680008B6893401F43F76008E0376902EB420212
:1026900093409F438B6893401F4337610A68102A19
:1026A00001D0112A20D1124B02689A4217D19368A7
:1026B0001B0219D4936843F400039360096810293E
:1026C00012D10C490C4A0968B1FBF2F101EB81010E
:1026D000490000E0491E00910029FBD104E0816A15
:1026E00041F020018162012480F824502046F8BD89
:1026F000002401400400002040420F00704710B544
:10270000044600684168890626D50168890723D5F3
:10271000A16AC90603D4A16A41F40071A16281686B
:10272000C1F34241072910D1217B71B9416821F0E1
:1027300020014160A06A20F48070A062A06AC004F9
:1027400003D4A06A40F00100A0622046FFF7D6FF44
:1027500021686FF0120008602068416809062ED5D4
:10276000016849072BD5A16AC90603D4A16A41F4BF
:102770000051A1628168C1F30231072909D0416883
:10278000490515D48168C1F34241072910D1217B45
:1027900071B9416821F080014160A06A20F4805045
:1027A000A062A06AC00503D4A06A40F00100A06244
:1027B0002046FFF724FF21686FF00C0008602068B6
:1027C000416849060DD50068C0070AD0A06A40F4E8
:1027D0008030A062204600F093F821686FF001007D
:1027E000086010BD2DE9F0414FF0000704003D46A0
:1027F0007ED0A06A002628B9E66284F824602046CC
:1028000000F080F82046FFF7D1FEA16AC90600D487
:1028100020B1A06A40F01000A06269E0A16A21F432
:10282000885141F00201A1626268E169237B0A4399
:1028300047EA43010A43A1684FF48077B94209D0BF
:10284000012907D05FF0000194F814C0BCF1010F1A
:1028500002D00AE03946F7E7F3B1A36A43F0200358
:10286000A362E36A43F00103E3622368D3F804C080
:102870002CF4694C4CEA010CC3F804C021688B6845
:10288000DFF870C003EA0C0313438B60A168B94200
:102890000BD0012909D00CE0DFF85CC0A3690CEB78
:1028A00043330B4343F40061DFE7218A0D05A5F5AF
:1028B00080152168CB6A23F470032B43CB62216817
:1028C00089680E4B1940914208D1E662A16A21F055
:1028D000020141F00101A162BDE8F081A06A20F08F
:1028E000020040F01000A062E06A40F00100E062E7
:1028F0000120F1E7FDF7E1FF00E0FFFFFE0E1FFF03
:102900007047000010B586B000210091019102913E
:1029100003911E4C03681E4903221E48A34211D195
:102920008B6943F400738B618B6903F40073049328
:102930008B6943F004038B61896901F00401049100
:10294000012113E0144CA3421DD18B6943F4806331
:102950008B618B6903F4806304938B6943F00403F8
:102960008B61896901F0040104910221CDE9001213
:10297000694600F025F800221146122000F082F985
:10298000122000F071F906B010BD000000240140D3
:1029900000100240000801400028014070B50446C4
:1029A00000F004F90546601C02D004480078044495
:1029B00000F0FCF8401BA042FAD370BD08000020D4
:1029C0002DE9F84FDFF8B891002409F1040A0AF163
:1029D000040B23460F270BF1040EC9E00125A54087
:1029E0002A40AA427DD1674ED1F804C0ACEB06085C
:1029F000B44532D014DCBCF1030F3AD009DCBCF191
:102A0000000F2AD0BCF1010F1CD0BCF1020F31D154
:102A10001DE0BCF1110F17D0BCF1120F2AD119E043
:102A2000B8F5881F19D006DCB8F5803F15D0B8F589
:102A3000801F1FD111E0B8F5001F0ED0B8F5041F9C
:102A400018D10AE0CB6815E0CB681B1D12E0CB68FB
:102A500008330FE0CB680C330CE08B682BB1012BF3
:102A60004FF0080303D0456104E0042302E0056150
:102A700000E00023FF2A01D8064601E000F1040629
:102A80004FEA840501D9A5F12005D6F8008007FAA0
:102A900005FC28EA0C0803FA05F548EA0508C6F81B
:102AA00000804D68ED0062D5374DAE6946F00106F5
:102AB000AE61AD6924F0030605F001050095334DC4
:102AC00006EB050CDCF80850A607360F07FA06F8E7
:102AD00025EA0805DFF8B880404503D14FF000082B
:102AE00017E044E0DFF8AC80404502D14FF0010828
:102AF0000FE0DFF8A480404502D14FF0020808E063
:102B0000DFF89880404502D14FF0030801E04FF014
:102B1000040808FA06F848EA0508CCF808804D6869
:102B2000D9F80060ED034D4601D5164300E0964309
:102B30002E604D68DAF80060AD03554601D51643A6
:102B400000E096432E604D68DBF80060ED025D46C4
:102B500001D5164300E096432E604D68DEF8006014
:102B6000AD02754601D5164300E096432E60641C05
:102B70000D682A46E5407FF431AFBDE8F88F0000CC
:102B8000000401400000111000100240000001404C
:102B900000080140000C01400010014000140140F9
:102BA0000AB1016170470904FBE700000148806831
:102BB0007047000008000020024881680278114434
:102BC0008160704708000020074810B5016841F097
:102BD00010010160032000F075F8002000F006F8F5
:102BE00000F024F8002010BD0020024070B50D4D0B
:102BF00004464FF47A712878B1FBF0F00A4909686D
:102C0000B1FBF0F000F080FD48B9102C07D2002293
:102C10002146501E00F036F800206C6070BD012087
:102C200070BD000008000020040000200C4808B51A
:102C3000816941F001018161816901F00101009127
:102C4000C16941F08051C161C06900F080500090BD
:102C50000448416821F0E06141F00071416008BD25
:102C60000010024000000140002809DB00F01F02B4
:102C7000012191404009800000F1E020C0F80011DE
:102C800070470000F0B40E4B1B680C46C3F30223E0
:102C9000C3F10705042D00D90425191D072901D208
:102CA000002300E0DB1E012606FA05F1491E214043
:102CB00099409E40761E16403143F0BC01F033BC73
:102CC0000CED00E0064900F0070208684FF6FF032C
:102CD000184040EA0220034A104308607047000091
:102CE0000CED00E00000FA05014901200862704780
:102CF00000000E4210B529A401461DCC86B08DE817
:102D00001D002AA02A4C006804900020012923D02D
:102D100002293AD010291DD161682268D20119D543
:102D2000C1F38342C9031DF8020009D5616804AAF2
:102D3000C1F34041515C1F4AB2FBF1F1484301E04D
:102D40001D4948436168490204D440005FF0030113
:102D5000B0FBF1F006B010BD226AC2F301210129D7
:102D600003D1920701D5C803F4E7022905D1626AAD
:102D7000920702D549F64040ECE70329EAD12168E1
:102D80008903E7D54FF22440E4E700F033F96168A6
:102D9000C1F38131491C4900DAE700000203040550
:102DA000060708090A0B0C0D0E0F10100102000097
:102DB0000010024000127A0000093D002DE9F8439E
:102DC00005460078354CC00754D0E0690026C000A5
:102DD00008D4E06940F08050E061E069012600F02D
:102DE000805000902E480168C90512D401688046C1
:102DF00041F480710160FFF7D9FE074605E000BF8E
:102E0000FFF7D4FEC01B642823D8D8F80000C00503
:102E1000F6D5206A10F4407021D0A98801F44071E1
:102E200081421CD0206A1F49012220F440700A60B0
:102E300000220A602062C00711D0FFF7B7FE0746E4
:102E400041F2883808E000BFFFF7B0FEC11B4145E2
:102E500002D90320BDE8F883206A8007F4D5206AF0
:102E6000696820F44070084320621EB1E06920F0D8
:102E70008050E0612878800705D56068A96820F453
:102E80004040084360602878C00605D56068E9685E
:102E900020F48000084360600020DBE7001002405F
:102EA00000700040400442422DE9F0470F46050003
:102EB00061D0434E306800F00700B84209D2306854
:102EC00020F0070038433060306800F00700B84257
:102ED00051D128683B4C810712D5400703D5606863
:102EE00040F4E06060602878000703D5606840F433
:102EF000605060606068A96820F0F000084360607E
:102F00002878C00728D06868012810D021680228D6
:102F100010D0890700292EDA616821F003010143EE
:102F20006160FFF743FE804641F288390DE0216879
:102F30008903EFE78901EDE7FFF738FEA0EB080111
:102F4000494502D90320BDE8F0876068696800F050
:102F50000C00B0EB810FEFD1306800F00700B842F1
:102F60000BD9306820F0070038433060306800F03B
:102F70000700B84201D00120E5E72878400705D5D1
:102F80006068E96820F4E060084360602878000722
:102F900006D56068296920F4605040EAC10060608D
:102FA00000F038F86168084AC1F30311515CC84069
:102FB0000649086006480068FFF718FE0020C2E7CF
:102FC0000020024000100240AAA4000804000020D3
:102FD0000C0000200448054900684968044AC1F310
:102FE0000221515CC84070470400002000100240DC
:102FF000BAA400080448054900684968044AC1F3B6
:10300000C221515CC84070470400002000100240FB
:10301000BAA4000812A185B00FC98DE80F0014A052
:10302000144A006804905168134801F00C03042B03
:1030300010D0082B0ED1C1F38343C9031DF8030040
:103040000AD5516804AAC1F34041515C0A4A504371
:10305000B0FBF1F005B0704708494843FAE70000BB
:1030600002030405060708090A0B0C0D0E0F1010C9
:10307000010200000010024000127A0000093D0029
:103080002DE9F84F040070D02078C04DC00749D01A
:103090006868C0F38100012807D06868C0F3810028
:1030A000022809D16868C00306D52868800339D58D
:1030B00060680028E7D035E06068B0F5803F0BD04D
:1030C00010B1B0F5A02F11D0286820F4803028600E
:1030D000286820F4802002E0286840F480302860CE
:1030E000606890B1FFF762FD06460AE0286840F488
:1030F00080202860F0E700BFFFF758FD801B6428A0
:1031000073D828688003F7D50CE0FFF74FFD06461B
:1031100005E000BFFFF74AFD801B6428F0D828684F
:103120008003F7D420789A4E80074FF001094FF0C2
:10313000000839D5686810F00C0F07D06868C0F334
:103140008100022809D16868C00306D42868800776
:1031500014D52069012808D110E02069B0B1C6F863
:103160000090FFF723FD074605E00AE1FFF71EFD8B
:10317000C01B0228C4D828688007F7D52868616971
:1031800020F0F80040EAC10028600DE0C6F8008099
:10319000FFF70CFD074604E0FFF708FDC01B0228FF
:1031A00023D828688007F7D4207800072CD57948E1
:1031B000A169D9B1C0F80090FFF7F8FC074604E018
:1031C000FFF7F4FCC01B02280FD8686A8007F7D508
:1031D00071484FF4FA510068B0FBF1F0009000BF65
:1031E0000098411E0091FAD20EE080E0C0F8008005
:1031F000FFF7DCFC074604E0FFF7D8FCC01B022801
:1032000075D8686A8007F7D42078400760D5E869E8
:103210000027C00008D4E86940F08050E861E86900
:10322000012700F0805000905C480168C90513D464
:103230000168834641F480710160FFF7B7FC824664
:1032400006E000BFFFF7B2FCA0EB0A0064284ED8EE
:10325000DBF80000C005F5D5E06801280AD008B108
:10326000052813D0286A20F001002862286A20F07F
:10327000040002E0286A40F001002862E06841F2A0
:10328000883B98B1FFF792FC82460BE0286A40F039
:1032900004002862EEE700BFFFF788FCA0EB0A01FC
:1032A00059455AD8286A8007F6D50CE0FFF77EFC0E
:1032B000824605E0FFF77AFCA0EB0A0159454CD89D
:1032C000286A8007F6D41FB1E86920F08050E861D1
:1032D000E06988B36968C1F38101022944D00228FA
:1032E000C6F8608004D0FFF761FC044638E034E0A3
:1032F000FFF75CFC074604E0FFF758FCC01B022800
:103300002BD828688001F7D4206AB0F5803F05D11A
:103310006868A16820F4003008436860D4E90801B7
:103320000843696821F4741108436860C6F8609026
:10333000FFF73CFC044606E025E000BFFFF736FC43
:10334000001B022809D828688001F7D51BE000BFC0
:10335000FFF72CFC001B022802D90320BDE8F88FE0
:1033600028688001F4D40EE00128F7D06868226A4A
:1033700000F48031914204D1616A00F470108842F7
:1033800001D00120EAE70020E8E700000010024039
:1033900000004242800442420400002000700040CD
:1033A000024850F8210080B270470000006C0040D5
:1033B000024800EB810091B201607047006C004050
:1033C00070B5040003D0607C002610B105E0012038
:1033D00070BD2674204600F043F802206074204639
:1033E00000F058F8042578BB204600F0ABFE58BB2F
:1033F0002068416821F007014160A06820B11748AA
:10340000016821F0010101601448001F0168A268F1
:1034100021F46071114301606068411C04D10120F6
:10342000FFF768FC80B1401E21688A6822F00F0215
:1034300042EA10428A602168CA6860F30F02CA60DB
:10344000204600F099FE08B16574C0E7E6730120DC
:103450006073A0736074002070BD0000306C004089
:1034600008B50068084988420DD1FFF73DFC0748C0
:10347000C16941F00061C161C069054900F00060A7
:1034800000900120086008BD0028004000100240A4
:103490003C04424270B504000AD02068416821F023
:1034A00008014160FFF782FB05464FF47A7608E099
:1034B000012070BDFFF77AFB401BB04201D9032009
:1034C00070BD206840680007F4D5002070BD70B55D
:1034D000040005D00025A56294F8510010B106E063
:1034E000012070BD84F85050204600F02FF80220D3
:1034F00084F851002068016821F040010160D4E99E
:1035000001010843D4E903121143084361690843E8
:10351000218B01F400710843E1690843216A0843E3
:10352000A16A084321680860A069042101EA1040EB
:10353000216848602068C16921F40061C161656546
:10354000012084F85100002070BD000000B585B056
:103550000021009101910291039100681049884275
:103560001BD11048C16941F48041C161C16901F4B6
:1035700080410491816941F0080181618069694657
:1035800000F0080004904FF42040009002200190C9
:10359000032003900448FFF713FA05B000BD0000B4
:1035A0000038004000100240000C01402DE9F84FA7
:1035B000044690F8500000271D461646894601280B
:1035C0000DD04FF0010B84F850B0FFF7EFFA8046B2
:1035D00094F85100BA46012804D002278EE0022058
:1035E000BDE8F88FB9F1000F7DD0002E7BD003200D
:1035F00084F85100C4F854A0C4F83090A686E6863A
:10360000C4F838A0A4F83CA0A4F83EA0C4F844A094
:10361000C4F840A0A068B0F5004F04D1206801684C
:1036200041F48041016020680168490603D40168C3
:1036300041F040010160E068B0F5006F606803D0C0
:1036400030B3012E24D040E008B1012E1CD1206BF4
:1036500021680088C86006E020688168890709D56C
:10366000216B0988C160206B801C2063E08E401EA6
:10367000E08609E0FFF79AFAA0EB0800A84202D31F
:10368000681C01D031E07DB3E08E0028E4D11FE05A
:10369000206B21680078087306E02068816889073C
:1036A00009D5216B09780173206B401C2063E08EE3
:1036B000401EE08609E0FFF779FAA0EB0800A84277
:1036C00002D3681C01D010E075B1E08E0028E4D16F
:1036D00042462946204600F0A5FD08B1202060653D
:1036E000A06820B107E008E0FFE7032706E02068B4
:1036F000C16880680090606D00B1012784F851B006
:1037000084F850A038466BE710B5401EB0F1807FBA
:1037100001D3012010BD4FF0E02460610F2160173C
:1037200000F001FF0020A06107202061002010BDF3
:1037300070B590F83C20012A19D0012400F83C4FC4
:103740000222427050F83C3C5A689D6822F0700694
:103750000A684968324325F0800529435A6050F8C9
:103760003C2C9160447000210170084670BD02201D
:1037700070BD10B5040003D094F83D0010B107E00F
:10378000012010BD002084F83C00204600F00CF819
:10379000022084F83D00211D206800F0FBFD01207F
:1037A00084F83D00002010BD08B500680649884235
:1037B00008D10648C16941F00201C161C06900F049
:1037C0000200009008BD000000040040001002400C
:1037D00070B5044690F83C00012817D0012584F804
:1037E0003C50022084F83D002068826822F0770275
:1037F00022F47F4282600868502830D00DDC2028F7
:103800004DD005DC98B310283BD148E0022070BDB4
:10381000302844D0402834D139E0602828D070289E
:1038200006D0B0F5805F2CD0B0F5005F29D10AE05A
:10383000CB68D1E90121206800F0E2FD20688168B1
:1038400041F0770109E0CB68D1E90121206800F05F
:10385000D7FD2068816841F48041816011E0CA6829
:103860004968206800F0DEFD5021206807E016E07E
:10387000CA684968206800F0E6FD6021206800F011
:10388000C9FD84F83D50002084F83C0070BDCA6832
:103890004968206800F0C6FD40212068EFE72268F3
:1038A00001461046EBE770B5040004D094F83900E7
:1038B000002510B106E0012070BD84F83850204684
:1038C00000F022F8242084F839002068C16821F42F
:1038D0000051C160204600F0C9FD2068016921F453
:1038E000904101612068416921F02A01416120680D
:1038F000C16841F40051C160E563202084F83900BB
:1039000084F83A00002070BD30B585B000240094E2
:1039100001940294039400681449884224D1144805
:10392000816941F480418161816901F480410491A0
:10393000816941F00401816180690E4D00F004004D
:1039400004904FF400700090022001900320039037
:1039500069462846FFF734F82815CDE90004694682
:1039600028460294FFF72CF805B030BD003801401E
:103970000010024000080140FEE781070CD16421DD
:10398000B0FBF1F201FB120141B94FF4C871B0FB79
:10399000F1F201FB120008B10020704701207047CE
:1039A0002DE9F04107461C4615460E462A2000F038
:1039B000EBF9380A00F0F6F9F8B200F0F3F9280A4A
:1039C00000F0F0F9E8B200F0EDF92B2000F0DCF99E
:1039D000300A00F0E7F9F0B200F0E4F9200A00F054
:1039E000E1F9E0B200F0DEF9BDE8F0412C2000F092
:1039F000CBB9000070B5040AC5B2EF2300211A4606
:103A00000846FFF7CDFF0F4900204FF4107200BFAA
:103A100001F8104001EB4003401C80B25D70904201
:103A2000F6D3012291030848FFF7BAF800244FF4B7
:103A300090652946034800F0F5F8641CA4B2642C94
:103A4000F7D370BD9C010020000C014070B5744D8F
:103A50004FF48054002221462846FFF7A1F80022A7
:103A600020212846FFF79CF87820FEF797FF0122D7
:103A700020212846FFF794F81420FEF78FFF01223B
:103A800021462846FFF78CF87820FEF787FF1120A3
:103A900000F07AF97820FEF781FF362000F074F903
:103AA000002000F07FF93A2000F06EF9652000F068
:103AB00079F9B22000F068F90C2000F073F90C20BD
:103AC00000F070F9002000F06DF9332000F06AF981
:103AD000332000F067F9B72000F056F9722000F0AB
:103AE00061F9BB2000F050F93D2000F05BF9C020E7
:103AF00000F04AF92C2000F055F9C22000F044F9FA
:103B0000012000F04FF9C32000F03EF9192000F029
:103B100049F9C42000F038F9202000F043F9C6200C
:103B200000F032F90F2000F03DF9D02000F02CF920
:103B3000A42000F037F9A12000F034F9E02000F0D3
:103B400023F9D02000F02EF9042000F02BF90D20ED
:103B500000F028F9112000F025F9132000F022F9D7
:103B60002B2000F01FF93F2000F01CF9542000F03A
:103B700019F94C2000F016F9182000F013F90D2067
:103B800000F010F90B2000F00DF91F2000F00AF9E9
:103B9000232000F007F9E12000F0F6F8D02000F033
:103BA00001F9042000F0FEF80C2000F0FBF81120D1
:103BB00000F0F8F8132000F0F5F82C2000F0F2F8EF
:103BC0003F2000F0EFF8442000F0ECF8512000F026
:103BD000E9F82F2000F0E6F81F2000F0E3F81F209E
:103BE00000F0E0F8202000F0DDF8232000F0DAF803
:103BF000212000F0C9F8292000F0C6F8EF230021A9
:103C00001A460846FFF7CCFE4FF6FF70FFF7F2FEAC
:103C10000022E1102846BDE87040FEF7C1BF000059
:103C2000000C01402DE9F0410B4F0C4605464FF4C6
:103C30008056002231463846FEF7B2FFFF23224667
:103C400029460648FFF7B2FC31463846BDE8F04148
:103C50000122FEF7A5BF0000000C01404401002036
:103C60002DE9F047203AD6B21C46F022A2EB5402CE
:103C700082423AD3C4F1F0028A4236DB0A19521E5C
:103C800093B200EB5402521E92B2FFF789FE102C41
:103C900001D0202C29D1600700D0012000EBD400F6
:103CA0006108484300F0FF08124A06EB4600002571
:103CB000DFF83C9002EB800A15E0102C15D11AF8C1
:103CC00005700026380602D5B9F8000001E0B9F801
:103CD000020000F075F87806761C070EF6B2082E82
:103CE000F0D36D1CEDB24545E7D3BDE8F087000089
:103CF0000000002036A000082DE9F047044600F03F
:103D0000FF0910190D46DDE908A61FFA80F85819B9
:103D100087B210E0444503D305EB0A004C4685B258
:103D2000BD420DD2534629462046FFF799FF04EBCA
:103D30005A0084B2761C3278A2F120005E28E9D9BC
:103D4000BDE8F08770B514460219049E1D46F02A9E
:103D500017D84B19F02B14D85B1E521E9BB292B28F
:103D6000FFF71EFE012291030648FEF719FF6C4380
:103D70004FF6FF7000EA44013046BDE87040FFF79F
:103D800051BF70BD000C014001B500224FF48041CD
:103D90000348FEF705FF01216846FFF743FF08BD12
:103DA000000C014001B5012291030448FEF7F8FE22
:103DB00001216846FFF736FF08BD0000000C0140F6
:103DC00008B500210091010A8DF800108DF801005E
:103DD000012291030348FEF7E3FE02216846FFF744
:103DE00021FF08BD000C01403EB50024114800949D
:103DF000019402940E4984600160012505730475E5
:103E000005614FF460214460C161FEF7EBFC08B12D
:103E1000FEF7F4FB07200094CDE901506946054800
:103E2000FEF7EEFB002801D0FEF7E8FB3EBD0000E8
:103E300000240140D00000203EB500211048009130
:103E400001910E4A029102600124816004730175A0
:103E5000E2040461C2614160FEF7C4FC08B1FEF7F0
:103E6000CDFB00940194694605480294FEF7C8FB17
:103E7000002801D0FEF7C2FB3EBD00000028014033
:103E800000010020F0B585B0002430480094019472
:103E900002940394816941F010018161816901F00C
:103EA00010010491816941F020018161816901F073
:103EB00020010491816941F004018161816901F06F
:103EC00004010491816941F0080181618069204FFA
:103ED00000F008000490012245F220213846FEF748
:103EE0005FFEBE15002231463846FEF759FE7001CE
:103EF00001258DE8310069461648FEF761FD4FF453
:103F0000A040CDE900050320CDE9024069463846CE
:103F1000FEF756FDCDE90064022669460E4802967A
:103F2000FEF74EFD1820CDE900046946384602949C
:103F3000FEF746FD4FF44870CDE90005CDE9024695
:103F400069463846FEF73CFD05B0F0BD0010024062
:103F5000000C014000100140000801400A4810B563
:103F6000084901604FF0FF3141604FF4807181607A
:103F7000FFF726FA002803D0BDE81040FEF73EBB4D
:103F800010BD00000028004030010020104810B58E
:103F90000E4901604FF4827141604FF4004181602D
:103FA0000021C1604FF400720161C0E90512C161D6
:103FB0000162416281620A21C162FFF788FA00282A
:103FC00003D0BDE81040FEF719BB10BD003800401B
:103FD0004401002010B586B00024174800940194D5
:103FE0000294039404941349059401604721C0E9A5
:103FF00001141821C0E9031480218161FFF7B9FB86
:1040000008B1FEF7FBFA4FF48050009069460A4869
:10401000FFF7DEFB08B1FEF7F1FA2020CDE904043A
:1040200004A90548FFF784FB002801D0FEF7E6FA53
:1040300006B010BD000400401C0600200C4810B55E
:104040000A4901604FF4E1314160002181600C2296
:10405000C160C0E904128161C161FFF724FC00283E
:1040600003D0BDE81040FEF7C9BA10BD00380140CA
:104070005C060020FEE77047024A114001430248F7
:104080000160704780FFFF1F08ED00E070470000EF
:104090002DE9F04F9A4605460023A0F2B270DDF8F4
:1040A00024B091468846822802D30120BDE8F08FD3
:1040B00040F2B2741F4E204F08E02046FFF75DFC2F
:1040C00008B1334400E03B44641CA4B2AC42F4D3D6
:1040D000A8F10100C6B20024184FDFF864800EE09A
:1040E000385D40F2A321484303EBC0132846FFF795
:1040F00044FC10B1012C00D14344641CA4B2B4426E
:10410000EED340F2A32109FB01F00D4903EBC010EF
:1041100049420844CAEB4A12C2EB0A2100EB0110E3
:10412000CBEB0B1100EB81000A99084400F060F81A
:104130000020BBE70085E2018033E1012AA00008EE
:104140008051010070B50446FEF730FD05464FF47E
:104150007A7606E0FEF72AFD401BB04201D9032023
:1041600070BD206840688006F4D52068416841F041
:1041700010014160002070BD70B5044600684168C0
:1041800021F010014160FEF711FD05464FF47A76EB
:1041900007E000BFFEF70AFD401BB04201D9032033
:1041A00070BD206840688006F4D5002070BD000016
:1041B0001CB501210D48FFF7F3F84AF2A354A042C1
:1041C00012D000211B20CDE9000101221423114649
:1041D00040F2E470FFF75CFF02B02246BDE81040F9
:1041E00001210248FFF7E4B81CBD000030010020A7
:1041F0000B490A6853689B06FCD5536843F01003CB
:1042000053600A68030C936180B2D061506820F05B
:1042100010005060086841688906FCD570470000AE
:104220003001002038B50B46009204460022802160
:1042300000F008F8002804D0606D40F020006065B0
:10424000032038BD2DE9F0411D4617460E460446B1
:10425000DDF8188008E0681C06D0FEF7A7FCA0EB8C
:104260000800A8420BD255B12068806836EA0000E9
:1042700030D00020B842EED10020BDE8F0812068A7
:10428000416821F0E00141606068B0F5827F0BD1A8
:10429000A068B0F5004F02D0B0F5806F04D120685F
:1042A000016821F040010160A06AB0F5005F09D10A
:1042B0002068016821F4005101602068016841F420
:1042C00000510160012084F85100002084F8500062
:1042D0000320D2E70120CDE77047FEF76DBC30B573
:1042E00093B028216846FEF736F914210AA8FEF794
:1042F00032F9002401210F941194052012940090AA
:10430000CDE9024110944FF48030019002250491D0
:10431000CDE907504FF4E01009906846FEF7B0FE73
:104320000F20CDE90A056802CDE90C4002210AA858
:104330000E94FEF7B9FD03200F90E8011090C00124
:1043400011900FA8FEF73AFD13B030BD0D4801687B
:1043500041F00101016041680B4A11404160016870
:104360000A4A11400160016821F48021016041681E
:1043700021F4FE0141604FF41F0181600449C00334
:1043800008607047001002400000FFF8FFFFF6FED3
:1043900008ED00E0F0B50268164B174C174D4FF0D2
:1043A0008047984205D0B84203D0A04201D0A8422D
:1043B00003D122F070064A683243984205D0B842D1
:1043C00003D0A04201D0A84203D122F44074CA68AD
:1043D00022434C6922F08002224302608A68C26252
:1043E0000A688262984201D1096901630121416131
:1043F000F0BD0000002C0140000400400008004017
:1044000010B5846842EA032224F47F440A4322431D
:10441000826010BD826822F070020A4342F00701F8
:104420008160704710B5036A046A24F001040462D5
:10443000846924F0F00444EA021423F00A020A43D7
:104440008461026210BD10B5036A23F01003036299
:104450008369046A23F4704343EA023224F0A00320
:1044600043EA01118261016210BD00002DE9F041B3
:10447000044600680169E26821F44051114301617A
:104480002169A0680843616908432168CA6841F24C
:104490000C639A430243CA6020684169A26921F40F
:1044A0004071114341611E492068642532268842CB
:1044B00002D1FEF79FFD01E0FEF78CFD00EBC0018D
:1044C00001EB001160686FF018078000B1FBF0F29B
:1044D000B2FBF5F2B1FBF0F37A4303EB8202B1FBDE
:1044E000F0F306EB0212B2FBF5F2B3FBF5F302F0C8
:1044F000F00202EB0312B1FBF0F3B1FBF0F0B0FB02
:10450000F5F0784303EB800006EB0010B0FBF5F00C
:10451000216800F00F0010448860BDE8F0810000C1
:1045200000380140FEE70907090E002804DB00F10E
:10453000E02080F80014704700F00F0000F1E02048
:1045400080F8141D704702E008C8121F08C1002A35
:10455000FAD170477047002001E001C1121F002A04
:10456000FBD1704730B5044690F82000194D89B052
:10457000810717D4C10701D0410713D52422214652
:104580006846FDF7CFFF2146134804F048F820465F
:1045900004F0AEF8012028700398B8B101466846CF
:1045A000884713E0E18B49426183C1070ED0410780
:1045B00002D4A18B494261838110491C61F38200BE
:1045C00084F82000D4E90410C4E90401287809B073
:1045D00030BD000090000020CC09002070B52348B9
:1045E00003F04FFF06E0086A20F0080008621F4849
:1045F00003F04CFF0100F6D11D4D686805F076FB15
:10460000064624E000202870206A010723D440F0E9
:1046100008002062608B304400B2608300281ADBFF
:10462000218B884200DD6183A1682046884762684B
:104630001AB1236801B218469047B4F91A00218BC9
:10464000884202DB2046FFF78DFF287818B1074823
:1046500003F017FF03E02146044803F017FF0400AE
:10466000D0D105F049FB686070BD0000CC09002086
:104670009000002002280ED003280FD0042811D06B
:10468000C1EBC101401EB1FBF0F00849C0B2085CAB
:104690005043000A70470548093801E00348C01F2D
:1046A000405CF5E70148001FFAE7000006A5000896
:1046B00038B505460092C8884A884C88801A401C44
:1046C00083B288880A88801A401C82B208882146F2
:1046D000FFF738FB2846BDE8384001F047B9000035
:1046E0000749096850B1021D006801F5805102EBCD
:1046F0005000021D8A4200D30020704708467047D0
:10470000A400002010B58A0702D021F00301091D82
:1047100002680B1DB3EB520F00D15108B1EB520FE1
:104720000CD0021D0A44136823F0010313600468CF
:10473000C1EB5404241F64F35F031360026861F348
:104740005F02026010BD2DE9F047054690F8580061
:1047500091468A46C00759D100260127EC68B84621
:104760007CB995F85800C0F30010401E30424DD17E
:10477000B8F1000F4AD02846514688470027044622
:10478000B8460EB9260041D037B1214628464A46E0
:1047900090470446B04239D00127002CE1D0206870
:1047A00004F05AFB0028DBD1E868A0422ED080B18B
:1047B000006800221021C3699847E86800220D2193
:1047C000006803F0C1F9012820D1E868006804F00E
:1047D000AFFBEC60206800220F21C3699847E868AE
:1047E00000220C21006803F0AFF901280ED1E8681F
:1047F000006805F02DFBE868006804F099FBA969E2
:10480000002903D02846BDE8F0470847BDE8F087F7
:104810002DE9FC470F0006D0C4686069B84204D196
:10482000A069BDE8FC870020FBE7002104230EE01F
:10483000A26801EB810052F8202003EB8000BA1A35
:104840000192A568285A90420AD2491C89B2608A0E
:10485000C0F309008842EBD80020C4E90570E2E704
:10486000284601EB8105122101EB85010026425CFF
:104870004FF00609910711D002F003084FF00C0A1F
:10488000B8F1010F0FD0274B08214FF0100CB8F1F1
:10489000020F12D0D243920725D03EE009EB8501EA
:1048A000405A019907E00AEB850109EB850241585E
:1048B000805A019A895C46182FE0009301EB850825
:1048C0000CEB8502825A50F80810022301A805F06B
:1048D0001DFA10B3A16851F80820801A09EB85026F
:1048E0004008895A18E0009301EB85080CEB85021B
:1048F000825A50F80810022301A805F007FA60B1A7
:10490000A16809EB850351F80820801A42080AEBD8
:1049100085000858C95A805C0E18C4E905763046EF
:104920007FE7000005A000087CB5C368C0680025CB
:104930005B8AC4689B042CD4A36801EB022013F0AB
:10494000407F04D0C3F30161012910D02DE0266817
:10495000ADF80400164823F07F4200900223314650
:1049600001A805F0D3F900B3801B40080EE02668CB
:10497000019010480090A068042320F07F42314647
:1049800001A805F0C3F980B1801B000961680D56CC
:104990000BE06368585C995C38B131B1637B226885
:1049A000401E00FB0320491E455628467CBD0000E2
:1049B000CD490008B949000803880A88934201D00C
:1049C000981A704740884988401A704703780A78D7
:1049D000934201D0981A704740784978401A70473E
:1049E00010B52421074803F065FD05F085F9064957
:1049F000002303224860BDE810401E21034805F053
:104A00002FB80000CC09002090000020DD450008F0
:104A1000B0F90410B0F90020891AB0F90620B0F9F5
:104A20000200101A401C491C4843704770B5B1F988
:104A30000030B2F90040A34200DC23460380B1F904
:104A40000250B2F90240A54200DD2C464480B1F983
:104A50000460B2F90450AE4200DA35468580B1F9FF
:104A60000610B2F90620914200DB1146C1800120F8
:104A7000AB4201DC8C4200DD002070BD10B5B0F906
:104A80000030B1F900400022A34212DBB0F902303D
:104A9000B1F90240A3420CDBB0F90430B1F9044093
:104AA000A34206DCB0F90600B1F90610884200DC2A
:104AB0000122104610BDB0F90020B1F904309A422D
:104AC00013DCB0F90420B1F900309A420DDBB0F9E3
:104AD0000220B1F906309A4207DCB0F90600B1F9BC
:104AE0000210884201DB012070470020704710B59A
:104AF000B1F90040B2F900309C4200DA234603804D
:104B0000B1F90240B2F902309C4200DA23464380F8
:104B1000B1F90440B2F904309C4200DD23468380A1
:104B2000B1F90610B2F90620914200DC1146C180AD
:104B300010BD10B5029C018042808380C48010BDEE
:104B40002DE9F0410D46074600F0C6F9060003D0F6
:104B5000384C206808B104E0FEE7304604F098F9CC
:104B60002060606818B9304604F049F960601C2183
:104B7000304603F0BFFF04002ED0207E2E49616036
:104B80002E49A1602E49E1602E4921612E496161C3
:104B900020F00F0020762D49304604F0BFFA2C4952
:104BA000304604F07AFAC5B1284604F04DF9027E89
:104BB000217E62F302012176027ED20862F3C301F4
:104BC0002176011D1422201DFDF7ACFC304604F0B7
:104BD00050FA3046BDE8F081FEE71FB130460121B2
:104BE00000F0E7FD0121304604F051FA05F078F8B5
:104BF000050019D0002130462A6900F058F801213B
:104C000030466A6900F053F802213046AA6900F084
:104C10004EF803213046EA6900F049F80421304695
:104C20002A6A00F044F8D4E73046616804F078FA64
:104C3000CFE70000C00000207C080020B80800205A
:104C4000F4080020300900206C090020F14C000815
:104C5000554C000810B5022A05D0054B5B6822B1FF
:104C6000012A02D002E0002010BD9847012010BDAB
:104C7000C000002010B504F0E7F8007EC0F3C000CB
:104C800010BD70B50C46054604F0DEF8017E01F05B
:104C90000702A2420AD064F30201017600EB84000D
:104CA00041682846BDE8704004F03ABA70BD70B55E
:104CB00014460D46064604F0C7F8052D0DD2DFE870
:104CC00005F0030507090B00446006E0846004E07A
:104CD000C46002E0046100E04461017E01F007016C
:104CE00000EB810041683046BDE8704004F018BA1E
:104CF0002DE9F84F564B91460D461B688346984761
:104D00000446012879D1584604F09EF807465846D3
:104D1000FFF7B0FF0646072D10D0092D2AD0082D29
:104D20001FD04FF001084FF0000A0A2D1ED0112DA0
:104D300058D0002D01D0062D7AD085E0387E41076D
:104D400004D000F00700022802D07DE0012104E039
:104D5000032102E0002100E002215846FFF791FF05
:104D600072E0484603F0B9FA20B96DE0484603F016
:104D7000B4FA38B1387E00F007000128EAD00328E1
:104D8000EAD061E0CDF800A0387E554600F007007B
:104D9000012800D116B1032806D006E000215846AC
:104DA000FFF76FFF00954FE016B1012807D00EE026
:104DB00002215846FFF765FFCDF8008044E036B188
:104DC00002215846FFF75DFFCDF8008026E003285A
:104DD00001D01EBB38E04EB300215846FFF751FF0B
:104DE00000951BE099F80000132807D0112805D082
:104DF000142809D0122807D026E026E05846FFF7ED
:104E000039FF0028DCD11FE05846FFF733FF68B1B7
:104E100000215846FFF735FFCDF800A06A460E2165
:104E2000584602F091FE044601280ED10CE0FFE73F
:104E30004946002051F820201AB1401CC0B2072872
:104E4000F8D304A249F820202046BDE8F88F0000DE
:104E5000C00000206C765F62746E0000B0F9021032
:104E6000B0F90000814201DC01207047002070474A
:104E7000028000234380C2F101000880704710B512
:104E800042880124521C13B24380B1F90020002A49
:104E900003DC04EB4300104407E00288521E02804A
:104EA000981A0A8804EB40001044088010BD0A4399
:104EB0000243C2F3C71070477F2A02D900F00100F5
:104EC000704701F0010070477F2A02D900F001000D
:104ED000704701F0010070472DE9F0410E4607468A
:104EE00003F014FE050003D0274C206808B104E04D
:104EF000FEE7284603F0CCFF20600221284603F09D
:104F0000F9FD284603F0A0FF041E2DD0617820781B
:104F100021F00F01617020F0FF0020701B4928462E
:104F200004F0FCF816B3304603F08EFF014600781B
:104F30000209207862F3051020700A78920962F362
:104F4000871020704B78627863F3010262704B78AF
:104F50009B0863F383026270097861F30300207099
:104F6000284604F086F82846BDE8F081002FFAD0E4
:104F700004F0B6FE10B1C168284601E02846044995
:104F800004F0CEF8EFE70000C8000020DD5700086D
:104F90000408002010B503F057FF007800F00F0060
:104FA00010BD2DE9F843044603F074FF8046002647
:104FB0003746201D03F065FA14E003F04DFF68B991
:104FC0000421284604F012F840B9284603F03EFFB9
:104FD000C119B8F81C00761C084407B22946201DE8
:104FE00003F054FA0500E8D1002E3BD0B8F81C00BD
:104FF0000121381A05B2204604F08BF805EBD57074
:105000004010404206B2201D03F04FFA22E003F0A8
:1050100023FFD8B90421284603F0E8FFB0B9284699
:1050200003F014FF00EBD07006EB600000B2002329
:1050300000901A462146284603F0CAFB284603F092
:1050400005FF8119B8F81C00084406B22946201D46
:1050500003F024FA0500DAD12046BDE8F843012127
:1050600003F04FBDBDE8F8832DE9F8438046FFF714
:1050700091FF0546404603F00DFF0446022D10D077
:10508000032D11D0042D12D0002601250121404608
:1050900004F03FF8B4F9149008F1040003F005FAA5
:1050A00027E0B4F91860F0E700260225EEE7608BF0
:1050B000404206B20325E9E703F0CEFEA0B9042181
:1050C000384603F093FF78B933462A4641463846BE
:1050D000CDF8009003F07CFB384603F0B7FEA18BBF
:1050E000484408440FFA80F9394608F1040003F0F7
:1050F000D5F90700E0D14046BDE8F843012103F0AF
:1051000000BD2DE9F84F804603F0C4FE0646404638
:1051100003F0EEFE81460021404603F064FE03F0FA
:10512000E7FE0446404603F0E9FE074600214046FC
:1051300003F059FE03F08AFEB6F91C20111997FB03
:10514000F1F18DB2012D06D905FB1473691E93FB95
:10515000F1F1214406E009EBD971491004EBD47355
:10516000A1EB6301104400B20FB200900121404650
:1051700003F0CFFFB6F918A0B6F914B04FF000094C
:1051800008F1040003F091F92BE003F065FE18BB71
:105190000421204603F02AFFF0B9012D5A4608D910
:1051A0005146204603F07BFF0AEB07000FFA80FA16
:1051B00003E03946204603F072FF09F101001FFAAF
:1051C00080F9A94508D30099B6F918A00BEB0100A6
:1051D0004FF000090FFA80FB214608F1040003F0AC
:1051E0005DF90400D1D14046BDE8F84F012103F03C
:1051F00088BC00002DE9FC5F804603F04BFE0746AB
:10520000404603F075FE0190B7F914A008F10400C0
:1052100003F04BF904006FD00121404603F079FF01
:105220004FEA0405398B788B4FF0000908440FFAD8
:1052300080FB4E46284603F00FFE78BB042128462B
:1052400003F0D4FE50BB284603F052FE00EB0B01E6
:105250000198814208DD5DB3F6B3294608F10400E8
:1052600003F014F9054624E0284603F041FEB98B0B
:10527000584408440FFA80FB284603F0E7FD4946EE
:10528000484501DA084602E0284603F0DFFD814682
:1052900008212846761C03F0A9FE48B9294608F1E2
:1052A000040003F0FBF8054606B90446002DC1D101
:1052B0009EB1012E21D0022E26D0B7F91C1001FB81
:1052C00016B0019900B2081A761EB0FBF6F00FFA7C
:1052D00080FBB7F9186079E001E0002D7ED0002353
:1052E000022241462846CDF800A003F071FA284674
:1052F00003F0ACFD81466CE082E0002302224146CF
:105300002046CDF800A036E02646314608F10400DC
:1053100003F0C4F88346304603F0EAFD04465846DD
:1053200003F0E6FD2044019900B2081A032190FB26
:10533000F1F004B2304603F089FDA9EB000000EB68
:10534000D0710AEB610000B2009023460122414671
:10535000304603F03DFA584603F078FDA9EB000013
:1053600000EBD0710AEB610000B20090604203B222
:1053700003224146584603F02BFA29E0204603F069
:105380006BFDD8B90421204603F030FEB0B92046A9
:1053900003F05CFDA9EB000000EBD0710AEB6100AB
:1053A00000B20090334601224146204603F010FA35
:1053B000204603F09DFD5844304406B2AC4207D06D
:1053C000214608F1040003F069F80446002CD5D109
:1053D00025B1BA8B0AEB0900104400E00AE00FFA8D
:1053E00080FA294608F1040003F058F80446250025
:1053F0007FF418AF4046BDE8FC5F012103F081BB9C
:10540000BDE8FC9F2DE9F8438046FFF7C3FD054644
:10541000404603F03FFD0446052D10D0062D11D067
:10542000072D12D0002501260121404603F071FE10
:10543000B4F9189008F1040003F037F826E0B4F945
:105440001450F0E700250726EEE7E08A404205B257
:105450000426E9E703F000FD98B90421384603F07B
:10546000C5FD70B94B46324641463846009503F0BB
:10547000AFF9384603F03CFDA18B484408440FFACD
:1054800080F9394608F1040003F008F80700E1D17B
:105490004046BDE8F843012103F033BB2DE9FF5F2F
:1054A000074603F0D1FC8146007810F0300F08D198
:1054B000800906D199F80100810702D110F00C0F84
:1054C0007ED0384603F0E6FC0546384603F0D8FCAB
:1054D000834603F0DFFC0146DBF810400A8BDBF863
:1054E0001400224462F30F044A8B8B8A821A62F3FF
:1054F0000F00C98A03EB2442C1EB204161F31F4036
:10550000804662F31F4402A9384603F073FC6946E3
:10551000384603F06FFC381D03F048F880F00100B6
:105520005FEA000A55D047F61840ADF80000ADF824
:1055300002004042ADF80400ADF80600381D02F04C
:10554000A0FF2AE003F088FC18BBBDF90010B6F9F3
:105550001000814200DB0146ADF80010BDF90200E9
:10556000B6F91210884200DB0846ADF80200BDF91A
:105570000410B6F91400814200DD0846ADF80400BD
:10558000BDF90610B6F91600814200DD0846ADF8F7
:1055900006003146381D02F079FF0600D2D1BDF871
:1055A0000000298B401AADF80000BDF80400698B9B
:1055B0000844ADF80400BDF80200A98A401A00E0D2
:1055C000BCE0ADF80200BDF80600E98A0844ADF879
:1055D000060099F80000DDE90256C0F30110012829
:1055E00004D0022805D0032813D105E0BDF800003F
:1055F0000DE064F30F050CE0BAF1000F06D0BDF921
:10560000000021B2884202DB084600E020B260F3CD
:105610000F0599F800008009012804D0022805D060
:10562000032815D105E0BDF804000FE068F30F066C
:105630000EE0BAF1000F07D0BDF904100FFA88F0A0
:10564000814203DD084601E00FFA88F060F30F069F
:1056500099F8010000F00300012804D002281CD0B2
:10566000032805D10FE0BDF8020000BF60F31F451D
:1056700099F80100C0F38100012810D0022850D011
:10568000032811D142E0BAF1000F06D0BDF9021093
:1056900020148142EADA0846E8E72014E6E7BDF87C
:1056A000060000BF60F31F46B7F9100029B2884218
:1056B0000ED1B7F912002914884209D1B7F91400A4
:1056C00031B2884204D1B7F916003114884235D07E
:1056D000384603F02DFC3D617E61384603F028FC1E
:1056E000FB6902AA022138469847DBF81C3058466D
:1056F0003A4601219847384603F070FB10B138460E
:1057000003F096FC381D02F0BCFE15E0BAF1000F64
:1057100007D0BDF906104FEA28408142C2DD084695
:10572000C0E74FEA2840BDE70022E369032198471C
:105730002146381D02F0AAFE0400F5D1BDE8FF9F06
:1057400070B50546FFF726FC04460021284603F005
:105750004AFB00282CD0002C2AD0012C14D0022C7B
:1057600017D0032C15D0042C13D0052C16D0062CE2
:1057700014D0072C12D0082C15D0092C18D128468B
:10578000BDE87040FFF7BDBC2846BDE87040FFF79C
:1057900008BC2846BDE87040FFF766BC2846BDE857
:1057A0007040FFF72FBE2846BDE87040FFF722BDCE
:1057B00070BD70B50C46054603F046FB017801F05C
:1057C0000F02A24209D064F3030101702846EB697D
:1057D000BDE8704000220121184770BD2DE9F0415D
:1057E0001F4B14460D461B6807469847064601287E
:1057F00033D1042D08D0012D06D0022D0BD0032D5E
:1058000005D0062D1CD027E03846FFF799FF384613
:10581000FFF744FE20E0384603F06AFBA1882288A7
:10582000891A491C09B28842EED1384603F00EFBB2
:10583000E1886288891A491C09B28842E4D10BE0E8
:105840005FF0000154F8210018B1491CC9B20729C2
:10585000F8D304A044F821003046BDE8F0810000F0
:10586000C80000206C765F636F6E74002DE9F04114
:105870000D461E46174604461C21FCF76CFEC4E983
:105880000057C4E90256BDE8F081000010B5044697
:105890002021FCF760FE00208021E0602180402173
:1058A00061806060A16821F00202044909782177D3
:1058B00042F00101A160606110BD0000C8D2000883
:1058C00070B50546254802F0FFFD040017D02022E0
:1058D0002946FCF727FE202104F59E70FCF73BFECD
:1058E0004FF4807104F13C00FCF735FE442104F1D3
:1058F000240002F0DFFD1A4D286808B101E0FEE740
:105900002C602E6800202C600146C4F85C0103F076
:10591000FDF800212063084603F0F8F800216063D9
:10592000084603F0F3F8A0630E49606B03F0F8FB40
:105930000C49A06B03F0F4FB206B03F0F9FA23464B
:1059400003221E2108482E6004F08AF8206218B154
:1059500004F07AF9204670BDFEE70000B40900208B
:1059600084000020D8060020515A00084068816950
:1059700021F001018161704718B9044800680028CE
:1059800002D0007A00F0010070470000840000207F
:10599000406870470148006870470000840000209C
:1059A00010B90748006828B1017A890704D4B0F912
:1059B0000000704780207047B0F902007047000077
:1059C0008400002010B518B9FFF7E4FF002800D0CC
:1059D000806B10BD10B518B9FFF7DCFF002800D0B0
:1059E000406B10BD10B518B9FFF7D4FF002800D0E8
:1059F000006B10BD10B90748006828B1017A89070B
:105A000004D4B0F90200704740207047B0F900009C
:105A100070470000840000204068016819B14068A8
:105A200008B1012070470020704700B50246B0F968
:105A30000030B0F9020043431046FFF7EDFF28B1F4
:105A40005068C068984201D1012000BD002000BD0F
:105A50002DE9F84F044604F04FF90090E0683D4C02
:105A6000606003F0DFFC03F07DFC6068B0F85C115F
:105A700089056AD0A246FFF7D8FFE8B35546DAF8A1
:105A80000400FFF785FF044603F0BEFDA069C007D0
:105A9000FCD1A16820688946814200D160688046B7
:105AA0006868FFF77DFF07460024AA4628E00A1928
:105AB00092F83C2112BB01EBC401B1F93C20B1F9D1
:105AC0003E50B1F8401007FB0526891A491C0FFA11
:105AD00081FB09E008EB060109EB06005A46FCF7DA
:105AE00021FD6D1C3E442DB2DAF8040000EBC40029
:105AF000B0F94200A84200E00AE0EBDA641CA4B26C
:105B0000DAF80410B1F85C21C2F30902A242CED83F
:105B1000DAF804004FF4807154463C30FCF71BFD6A
:105B20006068202100F59E70FCF715FD606800217B
:105B3000C0F85C11806940B1009804F0D7F865683E
:105B400001462846AB6922689847BDE8F84F00F047
:105B500073B8000028000020002809D0082808DABF
:105B6000084B03EB800050F8040C405C5043000AE3
:105B70007047012303EB41015143400091FBF0F0DA
:105B8000C0B270473400002070B515460E4604467A
:105B900003F00EFCFFF7F0FEB4EB660F04DBC6F378
:105BA0004F040CB1641EA4B2B4EB650F04DBC5F363
:105BB0004F0424B1641EA4B20CB1201A84B2204652
:105BC00070BD70B586B01C461546102B31D3FB2C2A
:105BD00000D9FF240A46014601A8FEF727FF002846
:105BE00027D003F0E5FBFFF7D3FEBDF80410028ACF
:105BF0002B46891AADF80C10BDF80610428A891A96
:105C0000ADF80E10BDF80810028A891AADF8101010
:105C1000BDF80A10428A891AADF81210818A866886
:105C2000008A03AA081A401C01B23046009404F00E
:105C300061F906B070BD000010B5054C2068002861
:105C400005D002F055FD034900202060086010BD1A
:105C5000A00000203000002010B50C490C4C0B684F
:105C60002268984201D8104610BD08603AB101463A
:105C7000104602F083FD20600028F5D1FEE702F017
:105C800009FD20600028EFD1FEE700003000002071
:105C9000A00000202DE9FE4398460A9C0D460646CA
:105CA000102C2CD3FB2C00D9FF24B2F90000B042F9
:105CB00025DCB2F90400B04221DBB2F90200A842AF
:105CC0001DDCB2F90600A84219DB03F071FB0746A0
:105CD000FFF75EFE828A018A521A711A0BB2521CB9
:105CE000418A12B2691A0EB27D6908F0FF0145B10E
:105CF00002948DF80410009681683846A847BDE8E4
:105D0000FE838068FF2C184406FB020506D0297824
:105D100022464046FFF7D0F82870F0E72970EEE7FA
:105D20002DE9F04105460F46C08869881E46401A95
:105D3000401C00B2144601283DDBA8882988401A7F
:105D4000401C00B2012836DB208A18B139462846AB
:105D500001F052FB39462846FEF7ADFE00282AD056
:105D6000A07910280DD9334622463946284601F03D
:105D7000ADFAA08828B1334622463946284600F0BD
:105D80008BFE6089002816D0207B002813D0607B12
:105D9000102810D3334622463946284600F0A7FC87
:105DA000A088002807D03346224639462846BDE859
:105DB000F04100F003B8BDE8F08100002DE9FF4F8D
:105DC000A5B0984615460646B2F8049003F0F0FADE
:105DD000FFF7D2FD0746B5F90A10A86806902C7B9C
:105DE000B8F1FF0F4ED06A7B02FB08F2100A824620
:105DF000491E08B2039017B1401E00B20390B0884C
:105E00003188F288401A401C01B27088101A401C78
:105E100002B24846FFF7B8FE32888146C1195018D1
:105E200000B212907288109011440AB20792F18861
:105E3000B388A1EB0900C01B01B2A3EB0900C01B92
:105E400000B260F30F0861F31F4808920F908B4671
:105E5000CDF8448015900FFA89F2904620A904A845
:105E6000FFF706F80399A9EB010002B2161E00DA4B
:105E7000002221A90BA8FEF7FBFF00200D90CDE921
:105E800019068AE2687BB2E7BDF92E30BDF92C20F5
:105E9000934203DA811A09B2039104E0411A09B26C
:105EA0000391491E09B21791002F7DD040457CD047
:105EB000BDF912000D990C90401ACDE922810FFA1C
:105EC00080F90026B7E000BFB9F1010F5246314614
:105ED00002DDFEF7CFFB04E0FFF73EFEAAEB000079
:105EE000C0B28046E0074FD0200724D5CDF800800F
:105EF000239ACDF874B00BEB0200304401B2169235
:105F000015980D90229A1C921044401C00B2AB6868
:105F1000269AFFF7BFFEDDE91C201044401C01B2A9
:105F2000169A0D98CDF800801044304400B2AB684A
:105F3000269AFFF7AFFE600726D5229ACDF800809B
:105F40000BEB0200401C0FFA80FC1098239916906E
:105F5000CDF834B0401A1C921D91801B00B2AB6882
:105F60006146269AFFF796FE1D990D981C9A0844E3
:105F7000304401B21698CDF80080801A401E00B25D
:105F8000AB68269AFFF786FEA00752D5600728D592
:105F9000CDF80080079823991D90401A801B169118
:105FA00001B212980D9001E0D0E04CE0229A1C92D0
:105FB000801A401E00B2AB68269AFFF76BFEDDE93F
:105FC0001C20801A401E0FFA80FC16990D98CDF8FF
:105FD0000080401A801B00B2AB686146269AFFF72A
:105FE00059FE200725D508981D90229ACDF80080EB
:105FF000801A401E0FFA80FC1C920F980D90239976
:1060000016910844304400B2AB686146269AFFF707
:1060100041FE16991D981C9A401A801B01B20D98DA
:10602000CDF800801044401C00B2AB68269AFFF700
:1060300031FE761C36B248464E45FFF645AFBDF9F7
:1060400010800C980D90BDF92C101A9881427DD0CB
:10605000BDF9120019991C90401A0FFA80F91A988C
:1060600000260C911390ADE0B9F1010F5246314674
:1060700005DDFEF7FFFAAAEB0000C0B201E0FFF772
:106080006BFD1990E00723D020070FD519980C99C4
:1060900000900BEB0100304401B2159A1398AB68E5
:1060A0001044401E00B2269AFFF7F4FD60070FD59A
:1060B0001998139900900BEB0100401E01B20C9A45
:1060C0001098AB68801A801B00B2269AFFF7E2FD99
:1060D000A00723D560070FD51998009007990C9851
:1060E000AB68081A801B01B2DDE91202801A401C5D
:1060F00000B2269AFFF7CEFD20070FD51998009021
:10610000139908980C9A401A401C01B20F98AB687A
:106110001044304400B2269AFFF7BCFD0C98139946
:106120003044081A01284BD0E00723D0200710D5AF
:106130001998009013980C9A5844401E01B2159873
:10614000AB681044304400B2269A00E043E0FFF709
:10615000A1FD60070ED5199800900C98139A584429
:10616000304401B21098AB68801A401C00B2269AE5
:10617000FFF790FDA00723D560070FD51998009071
:10618000079913980C9A081A401C01B21298AB6830
:10619000801A801B00B2269AFFF77CFD20070FD5DE
:1061A0001998009008990C98139A081A801B01B24C
:1061B0000F98AB681044401E00B2269AFFF76AFDA4
:1061C000761C36B248464E45FFF64EAFBDF92C0060
:1061D0001A901C981990E00763D020072FD5BDF8BE
:1061E0001000159E17993044411AADF80410BDF8FF
:1061F0001210ADF808000BEB0100ADF80600ADF889
:106200000A00D946534601A8069A2699FFF7D9FCF9
:10621000BDF81200BDF810103044ADF80400ADF820
:10622000080009EB01000399ADF80A00411AADF826
:106230000610534601A8069A2699FFF7C2FC60078C
:106240002FD5BDF81200109EBDF81010301AADF811
:106250000400ADF808000BEB01001799ADF80A0037
:10626000411AADF80610D946534601A8069A269958
:10627000FFF7A7FCBDF810000399301AADF8040031
:106280000844BDF81210ADF8080009EB0100ADF8A4
:106290000600ADF80A00534601A8069A2699FFF7B2
:1062A00090FCA0076BD5600733D5BDF912000799A4
:1062B0000BEB0002081A824213DDBDF81020129980
:1062C0005346891AADF80410179AADF80600114428
:1062D000ADF80810ADF80A0001A8069A2699FFF754
:1062E00070FCBDF8121012985346401AADF8040025
:1062F000ADF80800BDF810100798401AADF8060078
:106300000399069A0844ADF80A0001A82699FFF7F8
:1063100058FC200733D5BDF812100F98089E08448A
:10632000ADF80400ADF80800BDF810001799301A58
:10633000ADF806000844ADF80A00534601A8069AD5
:106340002699FFF73EFC11980114BDF91200014493
:10635000301A814213DDBDF810200F9953461144C5
:10636000039AADF808108A1AADF80420ADF80600BB
:10637000ADF80A0001A8069A2699FFF722FC20A989
:1063800004A8FEF77CFDBDF92E10BDF92C0081425A
:1063900003DA21A90BA8FEF772FDBDF91210BDF9B1
:1063A000100081427FF770AD002F7DD00D99BDF8B0
:1063B00012008946401A00B200260C909EE0524618
:1063C0003146FFF7C9FBAAEB0000C0B21190E0070D
:1063D00046D0200721D5119800900BEB0900159AA3
:1063E000304401B202EB08000D92401CCDF84C8005
:1063F0005F4600B2AB68269AFFF74CFC11980090FC
:1064000013980D9A3844401C01B202EB0900304445
:1064100000B2AB68269AFFF73DFC600720D51198C3
:1064200000900BEB0800CDE9168B401C109F01B2C9
:10643000A7EB0900801B00B2AB68269AFFF72AFC85
:106440001198009017981699484430440FFA80FC30
:10645000781A401E00B2AB686146269AFFF71AFC14
:10646000A00749D5600722D51198079900901B9184
:10647000A1EB0900129A801B01B24746D01B16926D
:10648000401E00B2AB68269AFFF704FC11980090FA
:106490001B99169AC81B401E01B2A2EB0900801B73
:1064A00000B2AB68269A00E01EE1FFF7F3FB20077D
:1064B00022D51198009008991791A1EB08000F9A26
:1064C000401E01B24F46D0190D92CDF84C80304499
:1064D00000B2AB68269AFFF7DDFB11981799009080
:1064E000C81B801B01B20D9A1398AB681044401C66
:1064F00000B2269AFFF7CEFB761C36B20C98864285
:10650000FFF65DAFA8EB0900002801DCA9EB08004D
:106510000C9988423AD146464FEA5A07E00719D00B
:1065200020070AD50BEB060001B2159800973044FE
:1065300000B2AB68269AFFF7ADFB60070AD50BEBFC
:10654000060001B210980097801B00B2AB68269A33
:10655000FFF7A0FBA00719D560070AD50798009799
:10656000801B01B21298AB68801B00B2269AFFF71D
:1065700091FB20070AD508980097801B01B20F985D
:10658000AB68304400B2269AFFF784FBDDE91919A5
:10659000BDF82E008846401A07B20026A1E05246F8
:1065A00031463846FFF7D8FA0A90E00721D0200795
:1065B0000ED50A9800900BEB08003044159A01B2F2
:1065C00002EB0900401E00B2AB68269AFFF762FB9F
:1065D00060070ED50A9800900BEB0900401E01B22F
:1065E0001098AB68A0EB0800801B00B2269AFFF75A
:1065F00051FBA00725D5600711D50A98009007998F
:10660000AB68A1EB0800801B12990FFA80FCA1EB8C
:106610000900401C00B26146269AFFF73BFB2007A9
:106620000FD50A98009008980F9AA0EB0900401C1B
:1066300001B202EB0800304400B2AB68269AFFF7C3
:1066400029FB08EB0600A9EB0000012847D0E00772
:1066500020D020070DD50A9800900BEB0900401EB2
:1066600001B21598AB684044304400B2269AFFF757
:1066700011FB60070ED50A9800900BEB0800304420
:1066800001B21098AB68A0EB0900401C00B2269A3A
:10669000FFF700FBA00722D560070FD50A980090EE
:1066A0000798AB68A0EB0900401C01B21298269A2B
:1066B000A0EB0800801B00B2FFF7ECFA20070ED514
:1066C0000A9800900898AB68A0EB0800801B01B204
:1066D0000F98269A4844401E00B2FFF7DBFA761C5A
:1066E00036B2BE42FFF65BAF29B0BDE8F08F2DE9B0
:1066F000FF4F85B01D4691460446B2F8048002F073
:1067000057FEFFF739F90746A08821886288401AAA
:10671000401C01B2E08899F80D30801A401C02B28A
:10672000B9F90A00FF2D01D06B431B0A0293401EEA
:1067300099F80C60D9F8083005B24FF0000B4046CC
:106740000393FFF721FA8046A84206DAA5EB08007A
:10675000C01B0FFA80FB284602E008EB070000B2DE
:10676000B9F8041041B1401C0FFA80FA6188B007F3
:1067700064D501EB0A0063E0B00712D52088ADF8BC
:106780000000A088ADF804006088ADF802006088C1
:10679000DDE902322844ADF8060068460699FFF7A5
:1067A00010FA30071ED5A088401BADF80000A08865
:1067B000ADF80400B4F90210B00701D5681C00E080
:1067C00000200844ADF80200B4F90610F00700D02C
:1067D000681C081AADF80600DDE902326846069921
:1067E000FFF7EFF970071ED52088ADF8000020886C
:1067F0002844ADF80400B4F90210B00701D5681CB4
:1068000000E000200844ADF80200B4F90610F007DB
:1068100000D0681C081AADF80600DDE902326846AF
:106820000699FFF7CEF9F0077DD02088ADF800007B
:10683000A088ADF80400E088401B1FE101EB0800D0
:10684000ADF80200E188F00702D0A1EB0A0001E0F8
:10685000A1EB0800ADF8060070070BD52088ADF855
:1068600000002844ADF80400DDE9023268460699CC
:10687000FFF7A7F930070BD5A088ADF80400401B3F
:10688000DDE90232ADF8000068460699FFF799F994
:1068900021885144A1EB0B00ADF80000A188A1EBC9
:1068A0000A0101EB0B00ADF80400B0070CD56088BD
:1068B000ADF802006088DDE902322844ADF8060038
:1068C00068460699FFF77DF9F0070BD0E088ADF830
:1068D0000600401BDDE90232ADF802006846069969
:1068E000FFF76FF9BBF1000F73D0B00737D5700712
:1068F00018D52088ADF80000218808EB070008446F
:10690000ADF804006188781C41440844ADF80200E9
:106910006088DDE902322844ADF806006846069931
:10692000FFF74FF900E0B4E0300718D5A188DDE9A2
:106930000232A1EB0800C01BADF80000A088ADF842
:1069400004006188781C41440844ADF80200608866
:106950002844ADF8060068460699FFF732F9F007BB
:1069600037D0700719D52088ADF80000218808EBD2
:1069700007000844ADF80400E088DDE90232401B5E
:10698000ADF80200E188A1EB0800C01B401EADF885
:10699000060068460699FFF714F9300719D5A18853
:1069A000DDE90232A1EB0800C01BADF80000A088B1
:1069B000ADF80400E088401BADF80200E188A1EBCF
:1069C0000800C01B401EADF8060068460699FFF798
:1069D000F8F8B9F8040000285BD116F0060F13D0C0
:1069E0002088ADF800002088DDE902323844ADF897
:1069F00004006088ADF8020060883844ADF80600F5
:106A000068460699FFF7DDF816F00A0F13D0A08844
:106A1000DDE90232C01BADF80000A088ADF804002B
:106A20006088ADF8020060883844ADF8060068461A
:106A30000699FFF7C6F816F0050F13D02088ADF8B9
:106A400000002088DDE902323844ADF80400E08817
:106A5000C01BADF80200E088ADF806006846069954
:106A6000FFF7AFF816F0090F13D0A088C01BADF8E0
:106A70000000A088ADF80400E088C01BADF802005B
:106A8000E088ADF80600DDE9023268460699FFF7B6
:106A900098F809B0BDE8F08F2DE9FF4FB1B004467A
:106AA00033981F46B0F8048002F082FCFEF764FFC2
:106AB00009903398FF2F8078059006903398C0781E
:106AC000089017903398807901D07843000A0A9093
:106AD000E0886188401A401C0FFA80F9A18820885C
:106AE0004A46081A401C01B24046FFF74DF80146DD
:106AF0000C9009982288084411180FB261880397F6
:106B0000084400B20E90E2880C9967F30F05521A00
:106B1000099960F31F45AA46511A0DB267F30F0693
:106B200065F31F4602961295A2880C998046521A68
:106B300009991395511A0EB2594666F30F0160F385
:106B40001F418B460B980C9966F30F0065F31F40AD
:106B50000AB20B901E962EA901A82292FEF788F980
:106B6000BDF80610681800B20090BDF80400294472
:106B7000321813B20AB2381A01B224A8FDF7D9FFAD
:106B8000BDF80410681800B20090BDF80600294452
:106B9000321813B20AB2381A01B226A8FDF7C9FF9B
:106BA000BDF80620BDF80410A8EB020000B200906A
:106BB000701803B2A8EB020002B2781A01B21CA846
:106BC000FDF7B7FFBDF80420BDF80610A8EB0200E2
:106BD00000B20090701803B2A8EB020002B2781A5B
:106BE00001B21AA8FDF7A5FF00200490DDF8888007
:106BF000C7E1099800287DD0BDF904104145FAD0BD
:106C00000499BDF906001F90401A0F4600B20C9976
:106C10001590A1EB0800C0EB0021B1FBF9F0C5B263
:106C20002A4605990898FEF74FF928902A460899B0
:106C30000598FEF749F900252990ADE00A9A012848
:106C4000294603DDFDF716FD064604E0FEF784FF46
:106C50000A99081AC6B21399009601EB080023910D
:106C60001E9922913944401C294400B20FFA81FC3C
:106C700001466046299B329AFFF70CF8029800966D
:106C8000011401EB0800219102990F91C91B401CCE
:106C9000491B00B20FFA81FC01466046299B329ADB
:106CA000FEF7F8FF4FEA2A41A1EB08002091AAEB7A
:106CB0000701401E491B00B200960FFA81FC0146F5
:106CC0006046289B329AFEF7E5FF4FEA2B41A1EB85
:106CD000080018910BEB0701401E294400B20096F2
:106CE0000FFA81FC01466046289B329AFEF7D2FFDC
:106CF000049900E058E00C98401A2844C0EB0021A9
:106D0000B1FBF9F0C0B20246079008990598FEF76A
:106D1000DBF800962A9023992A9BC81928442299C7
:106D20000FFA80FC01EB0800401C00B26146329A69
:106D3000FEF7B0FF21990096C81928440F990FFA61
:106D400080FCA1EB0800401E00B261462A9B329AEB
:106D5000FEF7A0FFDDE907200599FEF7B5F82A90B8
:106D600020990096C81B401B01B2AAEB0800401EE8
:106D700000B22A9B329AFEF78DFF18990096C81B25
:106D8000401B01B20BEB0800401C00B22A9B329A58
:106D9000FEF780FF6D1C2DB215988542FFF64EAFB1
:106DA000BDF904801F9804900027BDF906001299D0
:106DB000BDF9922001443E463D46914200D0012655
:106DC000BDF90410129ABDF99A300A449A4200D0D3
:106DD00001250E9A101ABDF97220904200D00127A9
:106DE0000E98411ABDF96A0081421BD0069901F044
:106DF0000102179901F001018A4201D1059A0CE0C4
:106E0000B4F90610081AC0EB0021B1FBF9F0C2B2C8
:106E100008990598FEF758F802461AA80A9B329975
:106E2000FEF7CFFEEFB1069800F00101179800F0D1
:106E30000100814201D1059A0EE0B4F90600BDF9C6
:106E40007210401AC0EB0021B1FBF9F0C2B20899F0
:106E50000598FEF739F802461CA80A9B3299FEF7FE
:106E6000B0FEEEB1069800F00101179800F00100A5
:106E7000814201D1059A0EE0B4F90600BDF99210E5
:106E8000401AC0EB0021B1FBF9F0C2B20899059895
:106E9000FEF71AF8024624A80A9B3299FEF791FEE3
:106EA000EDB1069800F00101179800F00100814251
:106EB00001D1059A0EE0B4F90600BDF99A10401A06
:106EC000C0EB0021B1FBF9F0C2B208990598FDF7BB
:106ED000FBFF024626A80A9B3299FEF772FE139822
:106EE000BDF806100790084400B20090BDF80400F9
:106EF0001E9F129E3A18039D13B231440AB2281AFB
:106F000001B224A8FDF715FEBDF804100798084447
:106F100000B20090BDF8060031443A1813B20AB22C
:106F2000281A01B226A8FDF704FEBDF806004FEAB4
:106F30002B47391A09B20091BDF804104FEA2A46CE
:106F40000BEB010213B2301A02B2AAEB010001B23C
:106F50005D461CA8FDF7EDFDBDF80400391A09B225
:106F60000091BDF80610301A6A1813B202B2AAEBEB
:106F7000010001B21AA8FDF7DCFD2EA901A8FDF75A
:106F80007EFF01A8FDF76AFF00287FF432AE069865
:106F900000F00106179800F00105AE4201D1059AF4
:106FA0000EE0B4F90600BDF96A10401AC0EB0021EA
:106FB000B1FBF9F0C2B208990598FDF785FF0246CA
:106FC0001AA80A9B3299FEF7FCFDBDF96A10BDF9BB
:106FD0007200814215D0AE4201D1059A0CE0B4F99D
:106FE0000610081AC0EB0021B1FBF9F0C2B20899F3
:106FF0000598FDF769FF02461CA80A9B3299FEF727
:10700000E0FDAE4201D1059A0EE0B4F90600BDF9EB
:107010009210401AC0EB0021B1FBF9F0C2B20899FE
:107020000598FDF751FF024624A80A9B3299FEF706
:10703000C8FDBDF99A00BDF99210884215D0AE4244
:1070400001D1059A0CE0B4F90610081AC0EB002132
:10705000B1FBF9F0C2B208990598FDF735FF024679
:1070600026A80A9B3299FEF7ACFD099800287CD02F
:107070000C982188801C0844ADF86800A1880C9801
:107080000A9B081A801EADF86C006088ADF86A0093
:107090006088ADF86E003398329982781AA8FEF7AE
:1070A00090FDE088ADF86A00E088ADF86E00339896
:1070B0000A9B3299C2781AA8FEF783FD0499BDF89D
:1070C000060068F30F05401A61F31F451E9100B2D8
:1070D0000C990690A1EB0800C0EB0021B1FBF9F080
:1070E000C4B2224605990898FDF7EEFE2990224683
:1070F00008990598FDF7E8FE0024289093E02146C2
:107100000A9AFEF729FD0A992F14081AC6B20B989D
:107110000096001421902844401C01B20B98129054
:107120003844204400B2289B329AFEF7B3FD0298FF
:107130000096001409902844401C01B2029818904F
:10714000C01B001B00B2289B329AFEF7A3FD4FEA3A
:107150002A402090401B401E01B2AAEB0700009677
:10716000001B00B2299B329A00E0ACE0FEF792FDD2
:107170004FEA2B401790401B401E01B20BEB07005B
:107180000096204400B2299B329AFEF783FD0499B1
:107190000C98401A2044C0EB0021B1FBF9F0C0B2BA
:1071A0000246079008990598FDF78EFE2A902198CF
:1071B00000963844204401B212982A9B2844401C6F
:1071C00000B2329AFEF766FD0998009638442044D2
:1071D00001B218982A9B401B401E00B2329AFEF75B
:1071E00059FDDDE907200599FDF76EFE2A902098EC
:1071F0000096C01B001B01B2AAEB0500401E00B2A6
:107200002A9B329AFEF746FD17980096C01B001B7A
:1072100001B20BEB0500401C00B22A9B329AFEF72C
:1072200039FD641C24B206988442FFF668AF1E99AB
:10723000A8EB0100002801DCA1EB080006998842B8
:1072400041D14446C8EB0421B1FBF9F0C5B22A464E
:1072500005990898FDF738FE06462A4608990598CC
:10726000FDF732FE07460A983B4645080B98009505
:1072700004EB204001B20B98329A204400B2FEF792
:1072800009FD0298009504EB204001B202983B46AC
:10729000001B00B2329AFEF7FDFCC4EB2A4001B29B
:1072A000AAEB0400009500B23346329AFEF7F2FCD6
:1072B000C4EB2B4001B20BEB0400009500B2334647
:1072C000329AFEF7E7FC35B0BDE8F08F2DE9FF4FAD
:1072D00085B0044690889A461646039002F068F8F6
:1072E000FEF74AFB8146B078F578029583468046E2
:1072F000E0886188401A401C07B2A0882188401AA3
:10730000401C01B2B079BAF1FF0F02D000FB0AF0C5
:10731000000A82463A460398FEF736FC07EBD7711F
:10732000B0EB610F2ADC2188ADF80010A188ADF820
:1073300004104FEAC871B1EBC57F6188014420D1C8
:1073400009B2ADF80210E288101A00B2ADF80600DA
:10735000B2886AB1B9F1000F04D0891CADF80210EF
:10736000801E03E0491CADF80210401EADF8060077
:1073700053465A4668460699FEF723FC09B0BDE815
:10738000F08F0FFA81F8E188081A05B2B08870B161
:10739000B9F1000F05D008F102080FFA88F8AD1E08
:1073A00004E008F101080FFA88F86D1E2DB2B8F15B
:1073B000000F1EDA4FF000081BE000BFADF802809E
:1073C000ADF80680B4F906000299A0EB0800C0EB06
:1073D0000020B0FBF7F0C2B25846FDF775FD02463B
:1073E000534668460699FEF7ECFB08F101080FFAD0
:1073F00088F8A845E2DDC1E72DE9FC4104461646C0
:107400000F469088A18822889846891AE288638866
:10741000491CD21A521C09B212B280B2FEF7B4FB58
:1074200005B22068009060680190BDF800006946D0
:107430002844ADF80000BDF80400401BADF804007E
:107440003846FDF71BFB00281ED1206800906068BD
:107450000190BDF8020069462844ADF80200BDF86D
:107460000600401BADF806003846FDF707FB002874
:107470000AD1B07C012809D0002805D14346324604
:107480003946204600F009F8BDE8FC814346324603
:107490003946204600F00AF9F6E72DE9FF4F99B08A
:1074A00099469346074601F083FFFEF765FA03907D
:1074B000B9883A887B88891AFA88BBF80400D21AFE
:1074C000491C521CBBF8106009B212B280B2FEF720
:1074D0005BFB0146039800EB400008440FFA80FA7A
:1074E0000398304406B20AF1040020F00300410082
:1074F000F01C00F0FC0008440091FEF7ADFB009981
:10750000079008440490524614A906A8FDF7B0FC61
:1075100011E0BDF91A200798BDF8181020F81210D4
:10752000BDF918200798BDF81A1020F8121014A9F8
:1075300006A8FDF7A4FC06A8FDF790FC0028E8D1FA
:10754000B9F1FF0F06D09BF8060000FB09F0010A15
:1075500000200BE09BF80610FAE7321A4A43520863
:10756000B2FBF6F2049B1A54401C00B2B042F4DBAA
:10757000398801EB0A0000B20B9060F30F08F9881C
:107580000398A1EB0A01081A401C00B260F31F48DF
:10759000CDF820800A90BA881190A2EB0A0109B2B6
:1075A0000991002053E0A0EB080060F30F05079855
:1075B0000A99B8F1000F30F91800014461F31F4532
:1075C0000999414461F30F041199014461F31F4487
:1075D00009D0079901EB480131F9021C081A00B2E1
:1075E000002710902EE00020F9E71098002804985A
:1075F00040D0C15D10983A1A0498805C0844400855
:10760000009081469BF80E30291428B213911A9AE3
:10761000FEF740FB13990898491C61F31F4521B2FE
:1076200000B2814208DDCDF800909BF80E302114A5
:1076300020B21A9AFEF72EFB2014401C7F1C60F328
:107640001F44BFB2B742D0DB08F1010000B2804650
:1076500050450B98A7DD401CADF8300009990A98F9
:10766000491E5044ADF83410ADF83200ADF8360084
:10767000002415E0C05DC3E704989BF80E201A991A
:10768000035D0CA8FEF79DFABDF83200401CADF872
:107690003200BDF83600401C641CADF83600A4B2C0
:1076A000B442E9DB1DB0BDE8F08F00002DE9FF4FCB
:1076B000A3B01F46804601F07BFEFEF75DF9049003
:1076C0002599B8F804202598B1F91060B8F8001091
:1076D000B8F80630511AB8F8022080889A1A491C66
:1076E000521C09B212B280B2FEF74EFA014604985B
:1076F000084400B20690012000EB460004B2069850
:10770000E11C30440590001D20F00300450021F0ED
:10771000030105EB810108440991FEF79DFA411927
:107720001891099902900844099029460298FAF79D
:1077300012FF1CA908A8069AFDF79AFB12E000BFE9
:10774000BDF922200298BDF8201020F81210BDF9D2
:1077500020200298BDF8221020F812101CA908A8B9
:10776000FDF78DFB08A8FDF779FB0028E8D12598E7
:10777000FF2F06D080797843010A002004FB04F231
:107780000BE08179F9E7231A4B435B02B3FBF2F577
:10779000189B43F82050401C00B2A042F3DBB8F81D
:1077A00004100698091A0498081A00B21990B8F83B
:1077B00006200699521A04991D90511A09B20D918A
:1077C000069A0498B8F802300244981800B20C9057
:1077D000B8F8003000241A4412B2159216920E9195
:1077E0000B90FDE000273D460598A84238DB0021BC
:1077F000734218B22AE0221806D5029A32F814C051
:10780000069AA2EB0C020CE0DDF818C062451FDC02
:10781000DDF808C03CF812C0029A32F81420ACEB34
:107820000202521B12B29A4203DA984210D1012787
:107830000EE0B24202DD189A126804E0A6EB020CD8
:10784000189A52F82C20401C114400B2B042D2DDEC
:107850000998090A002F415505F10105ADB2C3D0C1
:1078600002984FF0010730F814101D9801EB000248
:10787000484602F1010262F30F000C9AA2EB0402E7
:1078800012B262F31F40814619981A9201EB00026E
:10789000504602F1010262F30F000D9A224412B227
:1078A00062F31F40824615981292A0EB01025846DF
:1078B000A2F1010262F30F000B9AA2EB040212B2D2
:1078C00062F31F40834616981792A0EB01010F98B0
:1078D000A1F1010161F30F000E99214409B261F396
:1078E0001F40CDE90F0170E00FFA8BF015991E9043
:1078F00088420FDA0B99179888420BDA09984FEAF9
:107900002B41249AC05D00902598837B0FFA8BF061
:10791000FEF7C0F90F98169900B21F9088420EDA50
:107920000E99109888420ADD0998249AC05D00904B
:107930002598837B0F98011400B2FEF7ABF90FFA7C
:1079400089F01D99209088420FDD0C991A98884281
:107950000BDA09984FEA2941249AC05D00902598D6
:10796000837B0FFA89F0FEF795F90FFA8AF01999DF
:10797000229088420FDD0D99129888420BDD0998FC
:107980004FEA2A41249AC05D00902598837B0FFA24
:107990008AF0FEF77FF922985146401C60F30F01F0
:1079A0008A461F980F99401E60F30F0120980F918F
:1079B0004946401C60F30F011E988946401E5946F7
:1079C00060F30F017F1C8B46BFB2AF428CD32CB942
:1079D000DDE924124046099B00F009F8641C24B23A
:1079E0000598A042BFF6FEAE27B0BDE8F08F2DE9A6
:1079F000F0438FB0984616468946044601F0D8FCFD
:107A0000FDF7BAFFA18822886388891AE2880546B3
:107A1000B088D21A491C521CB6F9107009B212B2C1
:107A200080B2FEF7B1F84119A0884A19431B5B1CCC
:107A3000ADF81430B4F802C0ADF818300CEB020009
:107A4000ADF81600E0886B1E401A401BADF81A0016
:107A5000B4F800C00CEB0300ADF81C00B4F802C091
:107A6000ADF820009444ADF81EC0E088401A401BD9
:107A7000ADF8220020881044ADF80400608803446B
:107A8000ADF80630A088401A401BADF80800ADF8EC
:107A90000A3020881044ADF80C00E088421B521CCC
:107AA000ADF80E20A088401A401BADF81000ADF8CC
:107AB0001220012443E018F80450B27B2B464946BB
:107AC00005A8FEF77EF8BDF814002B46401CADF863
:107AD0001400BDF818004946401CADF81800B27BF0
:107AE00007A8FEF76EF8BDF81C002B46401EADF847
:107AF0001C00BDF820004946401EADF82000B27BB6
:107B000001A8FEF75EF8BDF806002B46401EADF852
:107B10000600BDF80A004946401EADF80A00B27BD7
:107B200003A8FEF74EF8BDF80E00401CADF80E009D
:107B3000BDF81200401C641CADF8120024B2BC4217
:107B4000B9DD0FB0BDE8F08330B438B113460A4652
:107B500084690146204630BC00F004B830BC0120E6
:107B6000704700002DE9FE4306460020194C0091A5
:107B70008DF8040002906068984691460D4600B169
:107B80000290C4F804D0A768C4F8088000F092FB03
:107B900018B182680AB14946904716B1494628464D
:107BA000B047A7606068806860609DF8040060B9B5
:107BB00075B195F8300000060AD5286840B14246F4
:107BC0004946FFF7C1FF012802D00020BDE8FE832F
:107BD0000120FBE71C00002010B5C468FCF718FE6C
:107BE000002808D0616811EBC00004D0006821684B
:107BF000C0F31300084410BD2DE9F0470C46994628
:107C000080461146C568FCF703FE071E26D0E868CB
:107C1000002650B149464046FCF7FAFD020004D068
:107C200039464046FCF780FE0646686800EBC70010
:107C300001680A0D298A714302EB211108310909F3
:107C400021804179E1700179A17081792171C07938
:107C50006071688AC0F38220A0710120BDE8F087BE
:107C600070B50C46060025D000F00BFC05E0086856
:107C7000A0421FD0304600F009FC0100F7D1E06AB5
:107C800030B1204601F0A6F910B1E06A00F045F8E5
:107C90003046E66200F069FC05000AD030462C60F0
:107CA00000F0EFFBA84205D13046BDE8704000F07F
:107CB00034B8FEE770BD0000014A0249FCF743BD3D
:107CC0008D84000883840008014A0249FCF73BBD0B
:107CD0009D840008AB840008002803D0C0680028F9
:107CE00000D00068704700005C21014800F0E2BB52
:107CF000D809002070B504461C30054601F0ACFCE4
:107D000094F85800800701D5626900E0226912B139
:107D1000294620469047284670BD70B5044690F825
:107D20005800C0F3001540F0100084F85800000718
:107D3000204602D4FFF7C0FF01E0FFF7C5FF14F8AB
:107D4000580F65F30410207070BD00002DE9F0415C
:107D5000804611480025114F066817E005EB8500A5
:107D600006EBC0046068404502D0B8F1000F0BD1AB
:107D700010B1204600F058FA20462421FAF7EBFB18
:107D800020462821FAF7E7FB6D1CADB23888854202
:107D9000E4D3BDE8F08100009800002054000020EA
:107DA0002DE9F041154C0546206828B10020FFF769
:107DB000CDFF206800F09CFC05EB8500C00000F0C2
:107DC00069FC206018B10E4E3580002510E0FEE7FA
:107DD000206805EB850700EBC7002421FAF7BBFB01
:107DE0002068282100EBC700FAF7B5FB6D1CADB287
:107DF00030888542ECD3BDE8F08100009800002077
:107E000054000020014600200F290AD2DFE801F0CB
:107E1000090909091008100A0C0E100A0C0E1000AE
:107E200010207047012070470220704704207047DF
:107E30000820704770B50C6A0D46002C08D02068E9
:107E400008B100F055FC204600F052FC00202862EA
:107E500070BD70B514460D46084600F019FA10B111
:107E6000022815D022E0296801F01F00001F0B280E
:107E70001CD22268880A60F3942222602868400D90
:107E800060F35F522260287860F3040222600BE006
:107E90002068012161F39420C0F3140000F5001064
:107EA00020F01F000B302060012070BD002070BD4D
:107EB0002DE9F04F054687B04EA00C4600680490AF
:107EC0004DA04EA100689846174605900FC9DDF8F1
:107ED00040A08DE80F00A86890F83010002001F055
